:020000040000FA
:020000001028C6
:10000800FE00030E83120313A0000408A1000A08CF
:10001800A2007F08A300392A11288313C030FD00ED
:100028000430FE000B30FF00A03084007424DA0195
:10003800DB01DC01DD01DE018301222883160313C5
:100048008E15FF227F2483120313A701A70A01300C
:10005800F021123083120313A9008030AA007923FB
:1000680083120313A701A70A0230F021013083127B
:100078000313A9008030AA007923831603130617F7
:1000880086170514851305138312031385130513A7
:100098009F161F159F141F148B170B17831203131A
:1000A800861F5728582875280130D7005708DE07BB
:1000B8005D08D7005708B0005B08D8005808B100A1
:1000C8005E08DB20023083120313D9008630D80083
:1000D8009830D700D70B6E28D80B6E28D90B6E280E
:1000E800752883120313061F7A287B289E285D0330
:1000F800031D7F288128013082280030D700570847
:10010800DD005D08D7005708B0005B08D800580824
:10011800B1005E08DB20023083120313D900863059
:10012800D8009830D700D70B9728D80B9728D90B29
:1001380097289E28831203135C080319A428A5286E
:100148005228051CA828A92852285A080319AD289E
:10015800AE28CD288517413083120313D800EE301E
:10016800D700D70BB528D80BB528831203138513EE
:100178000517023083120313D9008630D80098304F
:10018800D700D70BC528D80BC528D90BC528CC282C
:1001980052288517823083120313D800DD30D70028
:1001A800D70BD428D80BD4280000B92810288312DC
:1001B8000313D6003108031DE228E3284E29023034
:1001C8005602031CE828E928EA28DE0136308400B4
:1001D800A030B2000408B3002030B4003208840014
:1001E80083130008B500B20A33088400350880007C
:1001F800B30AB40BF2287F2483120313A701A70ABA
:100208000130F0215D3083120313A9008030AA0069
:10021800792383120313A701A70A0230F02183125E
:1002280003135E08B20003300310B20DFF3E031D36
:1002380018290310320D363EA9000030AA00792390
:1002480083120313300803192A292B297629560803
:10025800B2003208DA00DE01DB01DB0A7F248312F8
:100268000313A701A70A0130F021323083120313C8
:10027800A9008030AA00792383120313A701A70AD3
:100288000230F021223083120313A9008030AA0023
:10029800792376293103031D5229532976297F248E
:1002A80083120313A701A70A0130F02142308312F9
:1002B8000313A9008030AA00792383120313A7012E
:1002C800A70A0230F021113083120313A9008030ED
:1002D800AA007923831603130C17831203131F151F
:1002E8009F101F140800FF1B812983137F18831791
:1002F8000008840A0319FF0A080001308A0004086C
:10030800840A820700342034573465346C346434EA
:100318006534723420342034203420345634313457
:100328002E343034003400342034203442346134E4
:1003380074347434653472347934203453347034FA
:100348006F3474340034003420342034533470341F
:100358006F3474342034773465346C3464346534E1
:1003680069346E3467340034203443346C3469346F
:1003780063346B34203474346F34203473347434FD
:1003880061347234743400342034203420344334DB
:10039800683461347234673469346E3467342E34A7
:1003A8002E3400342034203420342034433468344C
:1003B800613472346734653464342134003453341E
:1003C800743472346934703420344434653470348D
:1003D800743468343A34003483120313AA002A03AD
:1003E800031DF729F829142A27087F3EA8002808A2
:1003F800AD002D08A80004300310A80CFF3E031D13
:10040800002A2808A9002908AC002D080F39A800DF
:100418002808AB002C084B24831203132B084B2409
:100428000230831203132A06031D1B2A1C2A382AAA
:100438002708BF3EA8002808AD002D08A8000430F2
:100448000310A80CFF3E031D242A2808A900290828
:10045800AC002D080F39A8002808AB002C084B2445
:10046800831203132B084B2408000C1F3C2A3D2A37
:10047800722A9F1F402A412A5B2A85130513842468
:10048800F301F30A0130BE225030F5008030F60047
:10049800B323F301F30A0230BE221130F500803095
:1004A800F600B32383120313DC01DC0A6F2ADC0194
:1004B8008424F301F30A0130BE224230F500803073
:1004C800F600B323F301F30A0230BE221130F5001F
:1004D8008030F600B323831203130C132308FF00A4
:1004E80022088A0021088400200E8300FE0E7E0E5A
:1004F800090083120313A80028080F39A50025084E
:10050800A6002808F039A5002508A7000614270822
:10051800A50004300310A50CFF3E031D8E2A2508F4
:100528002B24831203138614A63083120313A50009
:10053800A50B9C2A831203138610A630831203137B
:10054800A500A50BA52A8312031326082B248312C2
:1005580003138614A63083120313A500A50BB22A31
:10056800831203138610A63083120313A500A50B6C
:10057800BB2A0800F6007603031DC32AC42ADE2A14
:1005880073087F3EF4007408F9007908F400043019
:100598000310F40CFF3E031DCC2A7408F5007508FF
:1005A800F80079080F39F4007408F70078085E2419
:1005B80077085E2402307606031DE32AE42AFE2A21
:1005C8007308BF3EF4007408F9007908F400043099
:1005D8000310F40CFF3E031DEC2A7408F50075089F
:1005E800F80079080F39F4007408F70078085E24D9
:1005F80077085E2408008316031386010610861008
:1006080000302B24273083120313A800F430A700EE
:10061800A70B0C2BA80B0C2B112BA6308312031342
:10062800A700A70B152B03304B24073083120313A5
:10063800A8007C30A700A70B1F2BA80B1F2B242B6F
:1006480003304B24313083120313A700A70B2A2B46
:10065800000003304B2402304B2402304B24083076
:100668004B2400304B240C304B2400304B240630F4
:100678004B240800F40074080F39F1007108F200E7
:100688007408F039F1007108F3008312031306149B
:100698007308F10004300310F10CFF3E031D4F2BCB
:1006A8007108E923831203138614A630F100F10BB5
:1006B8005B2B0000831203138610A630F100F10BA8
:1006C800632B00007208E923831203138614A630F3
:1006D800F100F10B6D2B0000831203138610A63076
:1006E800F100F10B752B0000080083120313AE0113
:1006F800AF019A2B2E082907AC002A08AB00031873
:10070800AB0AAE1F882BAB03831203132B08AD0073
:100718002D08FF002C08840077217D2201308312E8
:100728000313AE070318AF0A0030AF072E082907D6
:10073800AC002A08AB000318AB0AAE1FA42BAB030E
:10074800831203132B08AD002D08FF002C0884002A
:100758007721003A031DB12BB22B7E2B0800FA013A
:10076800FB01D02B7A087507F8007608F700031804
:10077800F70AFA1FC02BF7037708F90079088312E4
:100788000313FF007808840077213E230130FA071D
:100798000318FB0A0030FB077A087507F80076088B
:1007A800F7000318F70AFA1FDA2BF7037708F9009E
:1007B800790883120313FF00780884007721003A30
:1007C800031DE72BE82BB62B0800F000701CED2B5F
:1007D800EE2BF22B831203130615F52B831203134A
:1007E8000611F01CF82BF92BFB2B8615FC2B861118
:1007F800701DFF2B002C022C0616032C0612F01D70
:10080800062C072C092C86160A2C86120800303470
:100818002E3431346D346D34203420342034203477
:1008280030342E34313435346D346D343C34303416
:100838002E3431346D346D343C342034203420343B
:1008480030342E34313435346D346D340034831201
:100858000313A400241C312C322C342C0615352CFF
:100868000611A41C382C392C3B2C86153C2C8611DF
:10087800241D3F2C402C422C0616432C0612A41D86
:10088800462C472C492C86164A2C861208008312BF
:100898000313A600061026082B24831203138614BC
:1008A800A63083120313A500A50B582C831203133B
:1008B80086100800F2008312031306107208E92359
:1008C800831203138614A630F100F10B692C000083
:1008D80083120313861008007E088A007F088200AE
:1008E80070248000840A04087D0603190034FF0A76
:1008F8000319FE0A742C00304B2401304B240800E5
:0A09080000305E2401305E24080078
:02400E00183F59
:00000001FF
